:100000000C942A000C9434000C9434000C943400AA
:100010000C9434000C9434000C9434000C94340090
:100020000C9434000C9434000C9434000C94340080
:100030000C9434000C9434000C9434000C94340070
:100040000C9434000C9434000C9434000C94340060
:100050000C94340011241FBECFE5D8E0DEBFCDBF25
:100060000E9436000C9474000C94000083E08ABB5C
:100070001BBA88EF87BB18BA26B386B38695817002
:1000800096B392FB992790F9322F317020FF0BC065
:10009000811109C0911107C08BB381608BBB8BB3F9
:1000A0008D7F8BBBE9CF31110BC0882349F09111B3
:1000B00007C08BB38E7F8BBB8BB382608BBBDCCFD7
:1000C00031110BC0811109C0992339F08BB38160C4
:1000D0008BBB8BB382608BBBCFCF8BB38E7F8BBB45
:0C00E0008BB38D7F8BBBC8CFF894FFCF93
:00000001FF
