S01700004763634170706C69636174696F6E312E737265635B
S11300000C942A000C943F000C943F000C943F0085
S11300100C943F000C943F000C943F000C943F0060
S11300200C943F000C943F000C943F000C943F0050
S11300300C943F000C943F000C943F000C943F0040
S11300400C943F000C943F000C943F000C943F0030
S11300500C943F0011241FBECFE5D8E0DEBFCDBF16
S113006010E0A0E6B0E0E6E9F1E002C005900D92F0
S1130070AA36B107D9F70E9441000C94C9000C9428
S11300800000CF93DF93CDB7DEB72A970FB6F8946D
S1130090DEBF0FBECDBF8AE0E0E6F0E0DE011196E0
S11300A001900D928A95E1F78CEF8ABB1BBA8EEF13
S11300B084BB15BA83E081BB12BA42E38DEC489F3E
S11300C0212D1124922F969596959695990F392F57
S11300D0330F330F930F342F391B932F2695269507
S11300E02695289F812D1124869586958695880FBF
S11300F0382F330F330F830F281B822F39B329B3C3
S11301002695217030FF0DC0433658F48FEF99EFD8
S1130110E0E081509040E040E1F700C000004F5F14
S1130120CDCF222369F0442359F0FFEF29EF30E0CB
S1130130F15020403040E1F700C000004150BECFF4
S113014022B3216022BB22B32D7F22BBE1E0F0E089
S1130150EC0FFD1FE90FF11D908195BBEFE9FFE066
S11301603197F1F700C0000092B39E7F92BB92B327
S1130170926092BBE1E0F0E0EC0FFD1FE80FF11D8F
S1130180808185BB8FE99FE00197F1F700C00000F3
S109019095CFF894FFCFA7
S10D01963F065B4F666D7D077F6F27
S9030000FC
