S01700004763634170706C69636174696F6E312E737265635B
S11300000C942A000C943F000C943F000C943F0085
S11300100C943F000C943F000C943F000C943F0060
S11300200C943F000C943F000C943F000C943F0050
S11300300C943F000C943F000C943F000C943F0040
S11300400C943F000C943F000C943F000C943F0030
S11300500C943F0011241FBECFE5D8E0DEBFCDBF16
S113006010E0A0E6B0E0E0E1F1E002C005900D92FE
S1130070AA36B107D9F70E9441000C9486000C946B
S11300800000CF93DF93CDB7DEB72A970FB6F8946D
S1130090DEBF0FBECDBF8AE0E0E6F0E0DE011196E0
S11300A001900D928A95E1F78CEF8ABB1BBA8FEF12
S11300B084BB15BA90E029B389B38695817020FF7B
S11300C00DC0993058F42FEF39EF80E021503040C3
S11300D08040E1F700C000009F5FEDCF882369F006
S11300E0992359F02FEF39EF80E0215030408040C0
S11300F0E1F700C000009150DECFE1E0F0E0EC0F4A
S1130100FD1FE90FF11D808185BBD5CFF894FFCF8A
S10D01103F065B4F666D7D077F6FAD
S9030000FC
